{
  "_format": "hh-sol-artifact-1",
  "contractName": "Betting",
  "sourceName": "contracts/Betting.sol",
  "abi": [
    {
      "inputs": [],
      "stateMutability": "nonpayable",
      "type": "constructor"
    },
    {
      "anonymous": false,
      "inputs": [
        {
          "indexed": false,
          "internalType": "uint256",
          "name": "timestamp",
          "type": "uint256"
        }
      ],
      "name": "EndBetting",
      "type": "event"
    },
    {
      "anonymous": false,
      "inputs": [
        {
          "indexed": false,
          "internalType": "address",
          "name": "addr",
          "type": "address"
        },
        {
          "indexed": false,
          "internalType": "uint256",
          "name": "amount",
          "type": "uint256"
        },
        {
          "indexed": false,
          "internalType": "string",
          "name": "upOrDown",
          "type": "string"
        }
      ],
      "name": "NewBetting",
      "type": "event"
    },
    {
      "anonymous": false,
      "inputs": [
        {
          "indexed": true,
          "internalType": "address",
          "name": "previousOwner",
          "type": "address"
        },
        {
          "indexed": true,
          "internalType": "address",
          "name": "newOwner",
          "type": "address"
        }
      ],
      "name": "OwnershipTransferred",
      "type": "event"
    },
    {
      "anonymous": false,
      "inputs": [
        {
          "indexed": false,
          "internalType": "bool",
          "name": "success",
          "type": "bool"
        },
        {
          "indexed": false,
          "internalType": "bytes",
          "name": "data",
          "type": "bytes"
        }
      ],
      "name": "Response",
      "type": "event"
    },
    {
      "inputs": [
        {
          "internalType": "string",
          "name": "_upOrDown",
          "type": "string"
        }
      ],
      "name": "bet",
      "outputs": [],
      "stateMutability": "payable",
      "type": "function"
    },
    {
      "inputs": [
        {
          "internalType": "uint256",
          "name": "",
          "type": "uint256"
        }
      ],
      "name": "bets",
      "outputs": [
        {
          "internalType": "address",
          "name": "addr",
          "type": "address"
        },
        {
          "internalType": "uint256",
          "name": "amount",
          "type": "uint256"
        },
        {
          "internalType": "string",
          "name": "upOrDown",
          "type": "string"
        }
      ],
      "stateMutability": "view",
      "type": "function"
    },
    {
      "inputs": [],
      "name": "coinPrice",
      "outputs": [
        {
          "internalType": "uint256",
          "name": "",
          "type": "uint256"
        }
      ],
      "stateMutability": "view",
      "type": "function"
    },
    {
      "inputs": [],
      "name": "endBetting",
      "outputs": [],
      "stateMutability": "nonpayable",
      "type": "function"
    },
    {
      "inputs": [],
      "name": "getBalance",
      "outputs": [
        {
          "internalType": "uint256",
          "name": "",
          "type": "uint256"
        }
      ],
      "stateMutability": "view",
      "type": "function"
    },
    {
      "inputs": [],
      "name": "getEachBet",
      "outputs": [
        {
          "internalType": "uint256",
          "name": "",
          "type": "uint256"
        },
        {
          "internalType": "uint256",
          "name": "",
          "type": "uint256"
        },
        {
          "internalType": "uint256",
          "name": "",
          "type": "uint256"
        }
      ],
      "stateMutability": "view",
      "type": "function"
    },
    {
      "inputs": [
        {
          "internalType": "uint256",
          "name": "_num",
          "type": "uint256"
        }
      ],
      "name": "getTotalbet",
      "outputs": [
        {
          "internalType": "uint256",
          "name": "",
          "type": "uint256"
        }
      ],
      "stateMutability": "view",
      "type": "function"
    },
    {
      "inputs": [],
      "name": "limitBetting",
      "outputs": [
        {
          "internalType": "bool",
          "name": "",
          "type": "bool"
        }
      ],
      "stateMutability": "view",
      "type": "function"
    },
    {
      "inputs": [],
      "name": "owner",
      "outputs": [
        {
          "internalType": "address",
          "name": "",
          "type": "address"
        }
      ],
      "stateMutability": "view",
      "type": "function"
    },
    {
      "inputs": [],
      "name": "renounceOwnership",
      "outputs": [],
      "stateMutability": "nonpayable",
      "type": "function"
    },
    {
      "inputs": [
        {
          "internalType": "uint256",
          "name": "_endCoinPrice",
          "type": "uint256"
        }
      ],
      "name": "setResult",
      "outputs": [],
      "stateMutability": "nonpayable",
      "type": "function"
    },
    {
      "inputs": [
        {
          "internalType": "uint256",
          "name": "_coinPrice",
          "type": "uint256"
        }
      ],
      "name": "startBetting",
      "outputs": [],
      "stateMutability": "nonpayable",
      "type": "function"
    },
    {
      "inputs": [],
      "name": "totalMoney",
      "outputs": [
        {
          "internalType": "uint256",
          "name": "",
          "type": "uint256"
        }
      ],
      "stateMutability": "view",
      "type": "function"
    },
    {
      "inputs": [
        {
          "internalType": "address",
          "name": "newOwner",
          "type": "address"
        }
      ],
      "name": "transferOwnership",
      "outputs": [],
      "stateMutability": "nonpayable",
      "type": "function"
    },
    {
      "inputs": [
        {
          "internalType": "uint256",
          "name": "",
          "type": "uint256"
        }
      ],
      "name": "upOrDowns",
      "outputs": [
        {
          "internalType": "string",
          "name": "name",
          "type": "string"
        },
        {
          "internalType": "uint256",
          "name": "totalBet",
          "type": "uint256"
        }
      ],
      "stateMutability": "view",
      "type": "function"
    }
  ],
  "bytecode": "0x608060405260006001556001600260006101000a81548160ff02191690831515021790555060006003553480156200003657600080fd5b50620000576200004b6200022b60201b60201c565b6200023360201b60201c565b600560405180604001604052806040518060400160405280600281526020017f55700000000000000000000000000000000000000000000000000000000000008152508152602001600081525090806001815401808255809150506001900390600052602060002090600202016000909190919091506000820151816000019081620000e4919062000571565b50602082015181600101555050600560405180604001604052806040518060400160405280600481526020017f446f776e0000000000000000000000000000000000000000000000000000000081525081526020016000815250908060018154018082558091505060019003906000526020600020906002020160009091909190915060008201518160000190816200017e919062000571565b50602082015181600101555050600560405180604001604052806040518060400160405280600481526020017f53616d6500000000000000000000000000000000000000000000000000000000815250815260200160008152509080600181540180825580915050600190039060005260206000209060020201600090919091909150600082015181600001908162000218919062000571565b5060208201518160010155505062000658565b600033905090565b60008060009054906101000a900473ffffffffffffffffffffffffffffffffffffffff169050816000806101000a81548173ffffffffffffffffffffffffffffffffffffffff021916908373ffffffffffffffffffffffffffffffffffffffff1602179055508173ffffffffffffffffffffffffffffffffffffffff168173ffffffffffffffffffffffffffffffffffffffff167f8be0079c531659141344cd1fd0a4f28419497f9722a3daafe3b4186f6b6457e060405160405180910390a35050565b600081519050919050565b7f4e487b7100000000000000000000000000000000000000000000000000000000600052604160045260246000fd5b7f4e487b7100000000000000000000000000000000000000000000000000000000600052602260045260246000fd5b600060028204905060018216806200037957607f821691505b6020821081036200038f576200038e62000331565b5b50919050565b60008190508160005260206000209050919050565b60006020601f8301049050919050565b600082821b905092915050565b600060088302620003f97fffffffffffffffffffffffffffffffffffffffffffffffffffffffffffffffff82620003ba565b620004058683620003ba565b95508019841693508086168417925050509392505050565b6000819050919050565b6000819050919050565b6000620004526200044c62000446846200041d565b62000427565b6200041d565b9050919050565b6000819050919050565b6200046e8362000431565b620004866200047d8262000459565b848454620003c7565b825550505050565b600090565b6200049d6200048e565b620004aa81848462000463565b505050565b5b81811015620004d257620004c660008262000493565b600181019050620004b0565b5050565b601f8211156200052157620004eb8162000395565b620004f684620003aa565b8101602085101562000506578190505b6200051e6200051585620003aa565b830182620004af565b50505b505050565b600082821c905092915050565b6000620005466000198460080262000526565b1980831691505092915050565b600062000561838362000533565b9150826002028217905092915050565b6200057c82620002f7565b67ffffffffffffffff81111562000598576200059762000302565b5b620005a4825462000360565b620005b1828285620004d6565b600060209050601f831160018114620005e95760008415620005d4578287015190505b620005e0858262000553565b86555062000650565b601f198416620005f98662000395565b60005b828110156200062357848901518255600182019150602085019450602081019050620005fc565b868310156200064357848901516200063f601f89168262000533565b8355505b6001600288020188555050505b505050505050565b61293680620006686000396000f3fe6080604052600436106100e85760003560e01c8063740305311161008a57806387da21e31161005957806387da21e3146102c65780638da5cb5b146102f1578063ad0f29161461031c578063f2fde38b14610347576100e8565b8063740305311461023f57806378adf8ba1461025b578063812448a514610286578063826f57a1146102af576100e8565b80632af02df0116100c65780632af02df01461018057806338593646146101ad5780635b4fed94146101eb578063715018a614610228576100e8565b806312065fe0146100ed57806312b54f821461011857806322af00fa14610141575b600080fd5b3480156100f957600080fd5b50610102610370565b60405161010f9190611aa8565b60405180910390f35b34801561012457600080fd5b5061013f600480360381019061013a9190611b03565b610378565b005b34801561014d57600080fd5b5061016860048036038101906101639190611b03565b6103fb565b60405161017793929190611c01565b60405180910390f35b34801561018c57600080fd5b506101956104dd565b6040516101a493929190611c3f565b60405180910390f35b3480156101b957600080fd5b506101d460048036038101906101cf9190611b03565b610562565b6040516101e2929190611c76565b60405180910390f35b3480156101f757600080fd5b50610212600480360381019061020d9190611b03565b61061e565b60405161021f9190611aa8565b60405180910390f35b34801561023457600080fd5b5061023d61064d565b005b61025960048036038101906102549190611ddb565b610661565b005b34801561026757600080fd5b50610270610c0a565b60405161027d9190611e3f565b60405180910390f35b34801561029257600080fd5b506102ad60048036038101906102a89190611b03565b610c1d565b005b3480156102bb57600080fd5b506102c4611812565b005b3480156102d257600080fd5b506102db61188d565b6040516102e89190611aa8565b60405180910390f35b3480156102fd57600080fd5b50610306611893565b6040516103139190611e5a565b60405180910390f35b34801561032857600080fd5b506103316118bc565b60405161033e9190611aa8565b60405180910390f35b34801561035357600080fd5b5061036e60048036038101906103699190611ea1565b6118c2565b005b600047905090565b610380611945565b60001515600260009054906101000a900460ff161515146103d6576040517f08c379a00000000000000000000000000000000000000000000000000000000081526004016103cd90611f1a565b60405180910390fd5b6001600260006101000a81548160ff0219169083151502179055508060038190555050565b6004818154811061040b57600080fd5b90600052602060002090600302016000915090508060000160009054906101000a900473ffffffffffffffffffffffffffffffffffffffff169080600101549080600201805461045a90611f69565b80601f016020809104026020016040519081016040528092919081815260200182805461048690611f69565b80156104d35780601f106104a8576101008083540402835291602001916104d3565b820191906000526020600020905b8154815290600101906020018083116104b657829003601f168201915b5050505050905083565b600080600060056000815481106104f7576104f6611f9a565b5b906000526020600020906002020160010154600560018154811061051e5761051d611f9a565b5b906000526020600020906002020160010154600560028154811061054557610544611f9a565b5b906000526020600020906002020160010154925092509250909192565b6005818154811061057257600080fd5b906000526020600020906002020160009150905080600001805461059590611f69565b80601f01602080910402602001604051908101604052809291908181526020018280546105c190611f69565b801561060e5780601f106105e35761010080835404028352916020019161060e565b820191906000526020600020905b8154815290600101906020018083116105f157829003601f168201915b5050505050908060010154905082565b60006005828154811061063457610633611f9a565b5b9060005260206000209060020201600101549050919050565b610655611945565b61065f60006119c3565b565b6040518060400160405280600281526020017f557000000000000000000000000000000000000000000000000000000000000081525080519060200120818051906020012014806106f457506040518060400160405280600481526020017f446f776e00000000000000000000000000000000000000000000000000000000815250805190602001208180519060200120145b8061074157506040518060400160405280600481526020017f53616d6500000000000000000000000000000000000000000000000000000000815250805190602001208180519060200120145b610780576040517f08c379a000000000000000000000000000000000000000000000000000000000815260040161077790612015565b60405180910390fd5b60011515600260009054906101000a900460ff161515146107d6576040517f08c379a00000000000000000000000000000000000000000000000000000000081526004016107cd90612081565b60405180910390fd5b60001515600660003373ffffffffffffffffffffffffffffffffffffffff1673ffffffffffffffffffffffffffffffffffffffff16815260200190815260200160002060009054906101000a900460ff16151514610869576040517f08c379a0000000000000000000000000000000000000000000000000000000008152600401610860906120ed565b60405180910390fd5b662386f26fc100003410156108b3576040517f08c379a00000000000000000000000000000000000000000000000000000000081526004016108aa90612159565b60405180910390fd5b34678ac7230489e8000010156108fe576040517f08c379a00000000000000000000000000000000000000000000000000000000081526004016108f5906121c5565b60405180910390fd5b600460405180606001604052803373ffffffffffffffffffffffffffffffffffffffff16815260200134815260200183815250908060018154018082558091505060019003906000526020600020906003020160009091909190915060008201518160000160006101000a81548173ffffffffffffffffffffffffffffffffffffffff021916908373ffffffffffffffffffffffffffffffffffffffff1602179055506020820151816001015560408201518160020190816109c09190612391565b5050506001600660003373ffffffffffffffffffffffffffffffffffffffff1673ffffffffffffffffffffffffffffffffffffffff16815260200190815260200160002060006101000a81548160ff0219169083151502179055506040518060400160405280600281526020017f557000000000000000000000000000000000000000000000000000000000000081525080519060200120818051906020012003610aa357346005600081548110610a7b57610a7a611f9a565b5b90600052602060002090600202016001016000828254610a9b9190612492565b925050819055505b6040518060400160405280600481526020017f446f776e0000000000000000000000000000000000000000000000000000000081525080519060200120818051906020012003610b2b57346005600181548110610b0357610b02611f9a565b5b90600052602060002090600202016001016000828254610b239190612492565b925050819055505b6040518060400160405280600481526020017f53616d650000000000000000000000000000000000000000000000000000000081525080519060200120818051906020012003610bb357346005600281548110610b8b57610b8a611f9a565b5b90600052602060002090600202016001016000828254610bab9190612492565b925050819055505b3460016000828254610bc59190612492565b925050819055507f7f6c216a9cedd1cbd4846d6636bf9797dcdcfd8571818c18836d8b0c2d635b4a333483604051610bff93929190611c01565b60405180910390a150565b600260009054906101000a900460ff1681565b610c25611945565b6000600354821115610fdf5760005b600480549050811015610fd9576040518060400160405280600281526020017f55700000000000000000000000000000000000000000000000000000000000008152508051906020012060048281548110610c9257610c91611f9a565b5b9060005260206000209060030201600201604051610cb09190612569565b604051809103902003610f29576127106005600081548110610cd557610cd4611f9a565b5b9060005260206000209060020201600101546123286005600281548110610cff57610cfe611f9a565b5b9060005260206000209060020201600101546005600181548110610d2657610d25611f9a565b5b906000526020600020906002020160010154610d429190612492565b610d4c9190612580565b610d5691906125f1565b60048381548110610d6a57610d69611f9a565b5b906000526020600020906003020160010154610d869190612580565b61232860048481548110610d9d57610d9c611f9a565b5b906000526020600020906003020160010154610db99190612580565b610dc39190612492565b610dcd91906125f1565b915060008060048381548110610de657610de5611f9a565b5b906000526020600020906003020160000160009054906101000a900473ffffffffffffffffffffffffffffffffffffffff1673ffffffffffffffffffffffffffffffffffffffff1684604051610e3b90612648565b60006040518083038185875af1925050503d8060008114610e78576040519150601f19603f3d011682016040523d82523d6000602084013e610e7d565b606091505b5091509150600060048481548110610e9857610e97611f9a565b5b9060005260206000209060030201600101819055507f13848c3e38f8886f3f5d2ad9dff80d8092c2bbb8efd5b887a99c2c6cfc09ac2a8282604051610ede9291906126b2565b60405180910390a181610f26576040517f08c379a0000000000000000000000000000000000000000000000000000000008152600401610f1d9061272e565b60405180910390fd5b50505b60006006600060048481548110610f4357610f42611f9a565b5b906000526020600020906003020160000160009054906101000a900473ffffffffffffffffffffffffffffffffffffffff1673ffffffffffffffffffffffffffffffffffffffff1673ffffffffffffffffffffffffffffffffffffffff16815260200190815260200160002060006101000a81548160ff0219169083151502179055508080610fd19061274e565b915050610c34565b50611742565b6003548210156113975760005b600480549050811015611391576040518060400160405280600481526020017f446f776e00000000000000000000000000000000000000000000000000000000815250805190602001206004828154811061104a57611049611f9a565b5b90600052602060002090600302016002016040516110689190612569565b6040518091039020036112e157612710600560018154811061108d5761108c611f9a565b5b90600052602060002090600202016001015461232860056002815481106110b7576110b6611f9a565b5b90600052602060002090600202016001015460056000815481106110de576110dd611f9a565b5b9060005260206000209060020201600101546110fa9190612492565b6111049190612580565b61110e91906125f1565b6004838154811061112257611121611f9a565b5b90600052602060002090600302016001015461113e9190612580565b6123286004848154811061115557611154611f9a565b5b9060005260206000209060030201600101546111719190612580565b61117b9190612492565b61118591906125f1565b91506000806004838154811061119e5761119d611f9a565b5b906000526020600020906003020160000160009054906101000a900473ffffffffffffffffffffffffffffffffffffffff1673ffffffffffffffffffffffffffffffffffffffff16846040516111f390612648565b60006040518083038185875af1925050503d8060008114611230576040519150601f19603f3d011682016040523d82523d6000602084013e611235565b606091505b50915091506000600484815481106112505761124f611f9a565b5b9060005260206000209060030201600101819055507f13848c3e38f8886f3f5d2ad9dff80d8092c2bbb8efd5b887a99c2c6cfc09ac2a82826040516112969291906126b2565b60405180910390a1816112de576040517f08c379a00000000000000000000000000000000000000000000000000000000081526004016112d59061272e565b60405180910390fd5b50505b600060066000600484815481106112fb576112fa611f9a565b5b906000526020600020906003020160000160009054906101000a900473ffffffffffffffffffffffffffffffffffffffff1673ffffffffffffffffffffffffffffffffffffffff1673ffffffffffffffffffffffffffffffffffffffff16815260200190815260200160002060006101000a81548160ff02191690831515021790555080806113899061274e565b915050610fec565b50611741565b60005b60048054905081101561173f576040518060400160405280600481526020017f53616d650000000000000000000000000000000000000000000000000000000081525080519060200120600482815481106113f8576113f7611f9a565b5b90600052602060002090600302016002016040516114169190612569565b60405180910390200361168f57612710600560028154811061143b5761143a611f9a565b5b906000526020600020906002020160010154612328600560018154811061146557611464611f9a565b5b906000526020600020906002020160010154600560008154811061148c5761148b611f9a565b5b9060005260206000209060020201600101546114a89190612492565b6114b29190612580565b6114bc91906125f1565b600483815481106114d0576114cf611f9a565b5b9060005260206000209060030201600101546114ec9190612580565b6123286004848154811061150357611502611f9a565b5b90600052602060002090600302016001015461151f9190612580565b6115299190612492565b61153391906125f1565b91506000806004838154811061154c5761154b611f9a565b5b906000526020600020906003020160000160009054906101000a900473ffffffffffffffffffffffffffffffffffffffff1673ffffffffffffffffffffffffffffffffffffffff16846040516115a190612648565b60006040518083038185875af1925050503d80600081146115de576040519150601f19603f3d011682016040523d82523d6000602084013e6115e3565b606091505b50915091506000600484815481106115fe576115fd611f9a565b5b9060005260206000209060030201600101819055507f13848c3e38f8886f3f5d2ad9dff80d8092c2bbb8efd5b887a99c2c6cfc09ac2a82826040516116449291906126b2565b60405180910390a18161168c576040517f08c379a00000000000000000000000000000000000000000000000000000000081526004016116839061272e565b60405180910390fd5b50505b600060066000600484815481106116a9576116a8611f9a565b5b906000526020600020906003020160000160009054906101000a900473ffffffffffffffffffffffffffffffffffffffff1673ffffffffffffffffffffffffffffffffffffffff1673ffffffffffffffffffffffffffffffffffffffff16815260200190815260200160002060006101000a81548160ff02191690831515021790555080806117379061274e565b91505061139a565b505b5b60006001819055506000600560008154811061176157611760611f9a565b5b9060005260206000209060020201600101819055506000600560018154811061178d5761178c611f9a565b5b906000526020600020906002020160010181905550600060056002815481106117b9576117b8611f9a565b5b9060005260206000209060020201600101819055506117d782610378565b7ff639a615c51a4756c499beb86d6776afa4ea1e988dafe9e45731631a2b1e300c426040516118069190611aa8565b60405180910390a15050565b61181a611945565b60011515600260009054906101000a900460ff16151514611870576040517f08c379a0000000000000000000000000000000000000000000000000000000008152600401611867906127e2565b60405180910390fd5b6000600260006101000a81548160ff021916908315150217905550565b60015481565b60008060009054906101000a900473ffffffffffffffffffffffffffffffffffffffff16905090565b60035481565b6118ca611945565b600073ffffffffffffffffffffffffffffffffffffffff168173ffffffffffffffffffffffffffffffffffffffff1603611939576040517f08c379a000000000000000000000000000000000000000000000000000000000815260040161193090612874565b60405180910390fd5b611942816119c3565b50565b61194d611a87565b73ffffffffffffffffffffffffffffffffffffffff1661196b611893565b73ffffffffffffffffffffffffffffffffffffffff16146119c1576040517f08c379a00000000000000000000000000000000000000000000000000000000081526004016119b8906128e0565b60405180910390fd5b565b60008060009054906101000a900473ffffffffffffffffffffffffffffffffffffffff169050816000806101000a81548173ffffffffffffffffffffffffffffffffffffffff021916908373ffffffffffffffffffffffffffffffffffffffff1602179055508173ffffffffffffffffffffffffffffffffffffffff168173ffffffffffffffffffffffffffffffffffffffff167f8be0079c531659141344cd1fd0a4f28419497f9722a3daafe3b4186f6b6457e060405160405180910390a35050565b600033905090565b6000819050919050565b611aa281611a8f565b82525050565b6000602082019050611abd6000830184611a99565b92915050565b6000604051905090565b600080fd5b600080fd5b611ae081611a8f565b8114611aeb57600080fd5b50565b600081359050611afd81611ad7565b92915050565b600060208284031215611b1957611b18611acd565b5b6000611b2784828501611aee565b91505092915050565b600073ffffffffffffffffffffffffffffffffffffffff82169050919050565b6000611b5b82611b30565b9050919050565b611b6b81611b50565b82525050565b600081519050919050565b600082825260208201905092915050565b60005b83811015611bab578082015181840152602081019050611b90565b60008484015250505050565b6000601f19601f8301169050919050565b6000611bd382611b71565b611bdd8185611b7c565b9350611bed818560208601611b8d565b611bf681611bb7565b840191505092915050565b6000606082019050611c166000830186611b62565b611c236020830185611a99565b8181036040830152611c358184611bc8565b9050949350505050565b6000606082019050611c546000830186611a99565b611c616020830185611a99565b611c6e6040830184611a99565b949350505050565b60006040820190508181036000830152611c908185611bc8565b9050611c9f6020830184611a99565b9392505050565b600080fd5b600080fd5b7f4e487b7100000000000000000000000000000000000000000000000000000000600052604160045260246000fd5b611ce882611bb7565b810181811067ffffffffffffffff82111715611d0757611d06611cb0565b5b80604052505050565b6000611d1a611ac3565b9050611d268282611cdf565b919050565b600067ffffffffffffffff821115611d4657611d45611cb0565b5b611d4f82611bb7565b9050602081019050919050565b82818337600083830152505050565b6000611d7e611d7984611d2b565b611d10565b905082815260208101848484011115611d9a57611d99611cab565b5b611da5848285611d5c565b509392505050565b600082601f830112611dc257611dc1611ca6565b5b8135611dd2848260208601611d6b565b91505092915050565b600060208284031215611df157611df0611acd565b5b600082013567ffffffffffffffff811115611e0f57611e0e611ad2565b5b611e1b84828501611dad565b91505092915050565b60008115159050919050565b611e3981611e24565b82525050565b6000602082019050611e546000830184611e30565b92915050565b6000602082019050611e6f6000830184611b62565b92915050565b611e7e81611b50565b8114611e8957600080fd5b50565b600081359050611e9b81611e75565b92915050565b600060208284031215611eb757611eb6611acd565b5b6000611ec584828501611e8c565b91505092915050565b7f416c726561647920737461727465640000000000000000000000000000000000600082015250565b6000611f04600f83611b7c565b9150611f0f82611ece565b602082019050919050565b60006020820190508181036000830152611f3381611ef7565b9050919050565b7f4e487b7100000000000000000000000000000000000000000000000000000000600052602260045260246000fd5b60006002820490506001821680611f8157607f821691505b602082108103611f9457611f93611f3a565b5b50919050565b7f4e487b7100000000000000000000000000000000000000000000000000000000600052603260045260246000fd5b7f4f6e6c652062657420746f205570206f7220446f776e206f722053616d650000600082015250565b6000611fff601e83611b7c565b915061200a82611fc9565b602082019050919050565b6000602082019050818103600083015261202e81611ff2565b9050919050565b7f7761697420666f7220746865206e6578742067616d6500000000000000000000600082015250565b600061206b601683611b7c565b915061207682612035565b602082019050919050565b6000602082019050818103600083015261209a8161205e565b9050919050565b7f4f6e6c792062657474696e67206f6e63652e0000000000000000000000000000600082015250565b60006120d7601283611b7c565b91506120e2826120a1565b602082019050919050565b60006020820190508181036000830152612106816120ca565b9050919050565b7f4d696e696d756d2062657474696e6720616d6f756e7420697320302e30312e00600082015250565b6000612143601f83611b7c565b915061214e8261210d565b602082019050919050565b6000602082019050818103600083015261217281612136565b9050919050565b7f4d6178696d756d2062657474696e6720616d6f756e742069732031302e000000600082015250565b60006121af601d83611b7c565b91506121ba82612179565b602082019050919050565b600060208201905081810360008301526121de816121a2565b9050919050565b60008190508160005260206000209050919050565b60006020601f8301049050919050565b600082821b905092915050565b6000600883026122477fffffffffffffffffffffffffffffffffffffffffffffffffffffffffffffffff8261220a565b612251868361220a565b95508019841693508086168417925050509392505050565b6000819050919050565b600061228e61228961228484611a8f565b612269565b611a8f565b9050919050565b6000819050919050565b6122a883612273565b6122bc6122b482612295565b848454612217565b825550505050565b600090565b6122d16122c4565b6122dc81848461229f565b505050565b5b81811015612300576122f56000826122c9565b6001810190506122e2565b5050565b601f82111561234557612316816121e5565b61231f846121fa565b8101602085101561232e578190505b61234261233a856121fa565b8301826122e1565b50505b505050565b600082821c905092915050565b60006123686000198460080261234a565b1980831691505092915050565b60006123818383612357565b9150826002028217905092915050565b61239a82611b71565b67ffffffffffffffff8111156123b3576123b2611cb0565b5b6123bd8254611f69565b6123c8828285612304565b600060209050601f8311600181146123fb57600084156123e9578287015190505b6123f38582612375565b86555061245b565b601f198416612409866121e5565b60005b828110156124315784890151825560018201915060208501945060208101905061240c565b8683101561244e578489015161244a601f891682612357565b8355505b6001600288020188555050505b505050505050565b7f4e487b7100000000000000000000000000000000000000000000000000000000600052601160045260246000fd5b600061249d82611a8f565b91506124a883611a8f565b92508282019050808211156124c0576124bf612463565b5b92915050565b600081905092915050565b60008190508160005260206000209050919050565b600081546124f381611f69565b6124fd81866124c6565b94506001821660008114612518576001811461252d57612560565b60ff1983168652811515820286019350612560565b612536856124d1565b60005b8381101561255857815481890152600182019150602081019050612539565b838801955050505b50505092915050565b600061257582846124e6565b915081905092915050565b600061258b82611a8f565b915061259683611a8f565b92508282026125a481611a8f565b915082820484148315176125bb576125ba612463565b5b5092915050565b7f4e487b7100000000000000000000000000000000000000000000000000000000600052601260045260246000fd5b60006125fc82611a8f565b915061260783611a8f565b925082612617576126166125c2565b5b828204905092915050565b50565b60006126326000836124c6565b915061263d82612622565b600082019050919050565b600061265382612625565b9150819050919050565b600081519050919050565b600082825260208201905092915050565b60006126848261265d565b61268e8185612668565b935061269e818560208601611b8d565b6126a781611bb7565b840191505092915050565b60006040820190506126c76000830185611e30565b81810360208301526126d98184612679565b90509392505050565b7f4661696c656420746f2073656e64204574686572000000000000000000000000600082015250565b6000612718601483611b7c565b9150612723826126e2565b602082019050919050565b600060208201905081810360008301526127478161270b565b9050919050565b600061275982611a8f565b91507fffffffffffffffffffffffffffffffffffffffffffffffffffffffffffffffff820361278b5761278a612463565b5b600182019050919050565b7f416c726561647920656e64000000000000000000000000000000000000000000600082015250565b60006127cc600b83611b7c565b91506127d782612796565b602082019050919050565b600060208201905081810360008301526127fb816127bf565b9050919050565b7f4f776e61626c653a206e6577206f776e657220697320746865207a65726f206160008201527f6464726573730000000000000000000000000000000000000000000000000000602082015250565b600061285e602683611b7c565b915061286982612802565b604082019050919050565b6000602082019050818103600083015261288d81612851565b9050919050565b7f4f776e61626c653a2063616c6c6572206973206e6f7420746865206f776e6572600082015250565b60006128ca602083611b7c565b91506128d582612894565b602082019050919050565b600060208201905081810360008301526128f9816128bd565b905091905056fea26469706673582212200cdfc5eeade374fa020ed03c3ef0f4e43542e3d781f6f83a86015c3947c08e6a64736f6c63430008110033",
  "linkReferences": {},
  "deployedLinkReferences": {}
}