{
    "contractName": "Betting",
    "abi": [
        {
            "inputs": [],
            "stateMutability": "nonpayable",
            "type": "constructor"
        },
        {
            "anonymous": false,
            "inputs": [
                {
                    "indexed": false,
                    "internalType": "address",
                    "name": "addr",
                    "type": "address"
                },
                {
                    "indexed": false,
                    "internalType": "uint256",
                    "name": "amount",
                    "type": "uint256"
                },
                {
                    "indexed": false,
                    "internalType": "string",
                    "name": "upOrDown",
                    "type": "string"
                }
            ],
            "name": "NewBetting",
            "type": "event"
        },
        {
            "anonymous": false,
            "inputs": [
                {
                    "indexed": true,
                    "internalType": "address",
                    "name": "previousOwner",
                    "type": "address"
                },
                {
                    "indexed": true,
                    "internalType": "address",
                    "name": "newOwner",
                    "type": "address"
                }
            ],
            "name": "OwnershipTransferred",
            "type": "event"
        },
        {
            "inputs": [
                {
                    "internalType": "string",
                    "name": "_upOrDown",
                    "type": "string"
                }
            ],
            "name": "bet",
            "outputs": [],
            "stateMutability": "payable",
            "type": "function"
        },
        {
            "inputs": [
                {
                    "internalType": "uint256",
                    "name": "",
                    "type": "uint256"
                }
            ],
            "name": "bets",
            "outputs": [
                {
                    "internalType": "address",
                    "name": "addr",
                    "type": "address"
                },
                {
                    "internalType": "uint256",
                    "name": "amount",
                    "type": "uint256"
                },
                {
                    "internalType": "string",
                    "name": "upOrDown",
                    "type": "string"
                }
            ],
            "stateMutability": "view",
            "type": "function"
        },
        {
            "inputs": [],
            "name": "endBetting",
            "outputs": [],
            "stateMutability": "nonpayable",
            "type": "function"
        },
        {
            "inputs": [],
            "name": "getAwards",
            "outputs": [
                {
                    "internalType": "uint256",
                    "name": "",
                    "type": "uint256"
                }
            ],
            "stateMutability": "view",
            "type": "function"
        },
        {
            "inputs": [],
            "name": "getBalance",
            "outputs": [
                {
                    "internalType": "uint256",
                    "name": "",
                    "type": "uint256"
                }
            ],
            "stateMutability": "view",
            "type": "function"
        },
        {
            "inputs": [],
            "name": "getEachBet",
            "outputs": [
                {
                    "internalType": "uint256",
                    "name": "",
                    "type": "uint256"
                },
                {
                    "internalType": "uint256",
                    "name": "",
                    "type": "uint256"
                }
            ],
            "stateMutability": "view",
            "type": "function"
        },
        {
            "inputs": [
                {
                    "internalType": "uint256",
                    "name": "_num",
                    "type": "uint256"
                }
            ],
            "name": "getTotalbet",
            "outputs": [
                {
                    "internalType": "uint256",
                    "name": "",
                    "type": "uint256"
                }
            ],
            "stateMutability": "view",
            "type": "function"
        },
        {
            "inputs": [],
            "name": "limitBetting",
            "outputs": [
                {
                    "internalType": "bool",
                    "name": "",
                    "type": "bool"
                }
            ],
            "stateMutability": "view",
            "type": "function"
        },
        {
            "inputs": [],
            "name": "owner",
            "outputs": [
                {
                    "internalType": "address",
                    "name": "",
                    "type": "address"
                }
            ],
            "stateMutability": "view",
            "type": "function"
        },
        {
            "inputs": [],
            "name": "renounceOwnership",
            "outputs": [],
            "stateMutability": "nonpayable",
            "type": "function"
        },
        {
            "inputs": [
                {
                    "internalType": "uint256",
                    "name": "_num",
                    "type": "uint256"
                }
            ],
            "name": "setResult",
            "outputs": [],
            "stateMutability": "nonpayable",
            "type": "function"
        },
        {
            "inputs": [],
            "name": "startBetting",
            "outputs": [],
            "stateMutability": "nonpayable",
            "type": "function"
        },
        {
            "inputs": [],
            "name": "totalMoney",
            "outputs": [
                {
                    "internalType": "uint256",
                    "name": "",
                    "type": "uint256"
                }
            ],
            "stateMutability": "view",
            "type": "function"
        },
        {
            "inputs": [
                {
                    "internalType": "address",
                    "name": "newOwner",
                    "type": "address"
                }
            ],
            "name": "transferOwnership",
            "outputs": [],
            "stateMutability": "nonpayable",
            "type": "function"
        },
        {
            "inputs": [
                {
                    "internalType": "uint256",
                    "name": "",
                    "type": "uint256"
                }
            ],
            "name": "upOrDowns",
            "outputs": [
                {
                    "internalType": "string",
                    "name": "name",
                    "type": "string"
                },
                {
                    "internalType": "uint256",
                    "name": "totalBet",
                    "type": "uint256"
                }
            ],
            "stateMutability": "view",
            "type": "function"
        }
    ],
    "bytecode": "608060405260006001556002805460ff191690553480156200002057600080fd5b506200002c3362000120565b60408051608081018252600291810182815261055760f41b6060830152815260006020820181905260048054600181018255915281519192027f8a35acfbc15ff81a39ae7d344fd709f28e8600b4aa8c65c6b64bfe7fe36bd19b0190819062000096908262000215565b50602091820151600191820155604080516080810182526004918101828152632237bbb760e11b606083015281526000938101849052815492830182559252815160029091027f8a35acfbc15ff81a39ae7d344fd709f28e8600b4aa8c65c6b64bfe7fe36bd19b019081906200010d908262000215565b50602082015181600101555050620002e1565b600080546001600160a01b038381166001600160a01b0319831681178455604051919092169283917f8be0079c531659141344cd1fd0a4f28419497f9722a3daafe3b4186f6b6457e09190a35050565b634e487b7160e01b600052604160045260246000fd5b600181811c908216806200019b57607f821691505b602082108103620001bc57634e487b7160e01b600052602260045260246000fd5b50919050565b601f8211156200021057600081815260208120601f850160051c81016020861015620001eb5750805b601f850160051c820191505b818110156200020c57828155600101620001f7565b5050505b505050565b81516001600160401b0381111562000231576200023162000170565b620002498162000242845462000186565b84620001c2565b602080601f831160018114620002815760008415620002685750858301515b600019600386901b1c1916600185901b1785556200020c565b600085815260208120601f198616915b82811015620002b25788860151825594840194600190910190840162000291565b5085821015620002d15787850151600019600388901b60f8161c191681555b5050505050600190811b01905550565b61140880620002f16000396000f3fe6080604052600436106100e85760003560e01c8063740305311161008a57806387da21e31161005957806387da21e3146102545780638da5cb5b1461026a578063d187162f14610292578063f2fde38b146102a757600080fd5b806374030531146101e257806378adf8ba146101f5578063812448a51461021f578063826f57a11461023f57600080fd5b806338593646116100c65780633859364614610168578063449209df146101965780635b4fed94146101ab578063715018a6146101cb57600080fd5b806312065fe0146100ed57806322af00fa1461010f5780632af02df01461013e575b600080fd5b3480156100f957600080fd5b50475b6040519081526020015b60405180910390f35b34801561011b57600080fd5b5061012f61012a366004610fd4565b6102c7565b60405161010693929190611033565b34801561014a57600080fd5b50610153610390565b60408051928352602083019190915201610106565b34801561017457600080fd5b50610188610183366004610fd4565b6103e7565b604051610106929190611063565b3480156101a257600080fd5b506100fc6104a3565b3480156101b757600080fd5b506100fc6101c6366004610fd4565b610556565b3480156101d757600080fd5b506101e0610584565b005b6101e06101f036600461109b565b610598565b34801561020157600080fd5b5060025461020f9060ff1681565b6040519015158152602001610106565b34801561022b57600080fd5b506101e061023a366004610fd4565b6108cf565b34801561024b57600080fd5b506101e0610dfc565b34801561026057600080fd5b506100fc60015481565b34801561027657600080fd5b506000546040516001600160a01b039091168152602001610106565b34801561029e57600080fd5b506101e0610e55565b3480156102b357600080fd5b506101e06102c236600461114c565b610eb1565b600381815481106102d757600080fd5b60009182526020909120600390910201805460018201546002830180546001600160a01b03909316945090929161030d9061117c565b80601f01602080910402602001604051908101604052809291908181526020018280546103399061117c565b80156103865780601f1061035b57610100808354040283529160200191610386565b820191906000526020600020905b81548152906001019060200180831161036957829003601f168201915b5050505050905083565b60008060046000815481106103a7576103a76111b6565b90600052602060002090600202016001015460046001815481106103cd576103cd6111b6565b906000526020600020906002020160010154915091509091565b600481815481106103f757600080fd5b906000526020600020906002020160009150905080600001805461041a9061117c565b80601f01602080910402602001604051908101604052809291908181526020018280546104469061117c565b80156104935780601f1061046857610100808354040283529160200191610493565b820191906000526020600020905b81548152906001019060200180831161047657829003601f168201915b5050505050908060010154905082565b600061271060046000815481106104bc576104bc6111b6565b90600052602060002090600202016001015460046001815481106104e2576104e26111b6565b90600052602060002090600202016001015461271061050191906111e2565b61050b91906111ff565b61051591906111ff565b61052190612710611221565b6003600081548110610535576105356111b6565b90600052602060002090600302016001015461055191906111e2565b905090565b60006004828154811061056b5761056b6111b6565b9060005260206000209060020201600101549050919050565b61058c610f2a565b6105966000610f84565b565b3360009081526005602052604090205460ff16156105f25760405162461bcd60e51b815260206004820152601260248201527127b7363c903132ba3a34b7339037b731b29760711b60448201526064015b60405180910390fd5b601a3410156106435760405162461bcd60e51b815260206004820152601f60248201527f4d696e696d756d2062657474696e6720616d6f756e7420697320302e30312e0060448201526064016105e9565b60025460ff1615156001146106885760405162461bcd60e51b815260206004820152600b60248201526a105b1c9958591e48195b9960aa1b60448201526064016105e9565b604080516060810182523381523460208201908152918101838152600380546001810182556000829052835191027fc2575a0e9e593c00f959f8c92f12db2869c3395a3b0502d05e2516446f71f85b810180546001600160a01b03939093166001600160a01b031990931692909217825593517fc2575a0e9e593c00f959f8c92f12db2869c3395a3b0502d05e2516446f71f85c8501559051919290917fc2575a0e9e593c00f959f8c92f12db2869c3395a3b0502d05e2516446f71f85d909101906107549082611283565b505033600090815260056020908152604091829020805460ff1916600117905581518083019092526002825261055760f41b918101919091528251908301207f70064390b27bea4c6fa18384a6c1f2107e0a5c1f82faaae8a043e187525ebea30190506107f6573460046000815481106107d0576107d06111b6565b906000526020600020906002020160010160008282546107f09190611221565b90915550505b6040805180820190915260048152632237bbb760e11b6020918201528151908201207f181087255dd1347ce08b4e185d57fb32a37cb2c782e838be18df0d5df17e4a850161087957346004600181548110610853576108536111b6565b906000526020600020906002020160010160008282546108739190611221565b90915550505b346001600082825461088b9190611221565b90915550506040517f7f6c216a9cedd1cbd4846d6636bf9797dcdcfd8571818c18836d8b0c2d635b4a906108c490339034908590611033565b60405180910390a150565b6108d7610f2a565b600081600003610b415760005b600354811015610b3b57604080518082019091526002815261055760f41b602090910152600380547f8ff9bc6f4d8415b3905e7c7b593e0def81f5a3e07d0555175fbc1e78ada1415d91908390811061093f5761093f6111b6565b906000526020600020906003020160020160405161095d9190611343565b604051809103902003610ad7576127106004600081548110610981576109816111b6565b90600052602060002090600202016001015460046001815481106109a7576109a76111b6565b9060005260206000209060020201600101546127106109c691906111e2565b6109d091906111ff565b6109da91906111ff565b6109e690612710611221565b600382815481106109f9576109f96111b6565b906000526020600020906003020160010154610a1591906111e2565b915060008060038381548110610a2d57610a2d6111b6565b600091825260208220600390910201546040516001600160a01b039091169186919081818185875af1925050503d8060008114610a86576040519150601f19603f3d011682016040523d82523d6000602084013e610a8b565b606091505b509150915081610ad45760405162461bcd60e51b81526020600482015260146024820152732330b4b632b2103a379039b2b7321022ba3432b960611b60448201526064016105e9565b50505b60006005600060038481548110610af057610af06111b6565b60009182526020808320600392909202909101546001600160a01b031683528201929092526040019020805460ff191691151591909117905580610b33816113b9565b9150506108e4565b50610d9f565b60005b600354811015610d9d576040805180820190915260048152632237bbb760e11b602090910152600380547fe7ef78daa22ecb831f74b1e7a2a804cd5c834d387d17c741e720f2a20e81b57b919083908110610ba157610ba16111b6565b9060005260206000209060030201600201604051610bbf9190611343565b604051809103902003610d39576127106004600181548110610be357610be36111b6565b9060005260206000209060020201600101546004600081548110610c0957610c096111b6565b906000526020600020906002020160010154612710610c2891906111e2565b610c3291906111ff565b610c3c91906111ff565b610c4890612710611221565b60038281548110610c5b57610c5b6111b6565b906000526020600020906003020160010154610c7791906111e2565b915060008060038381548110610c8f57610c8f6111b6565b600091825260208220600390910201546040516001600160a01b039091169186919081818185875af1925050503d8060008114610ce8576040519150601f19603f3d011682016040523d82523d6000602084013e610ced565b606091505b509150915081610d365760405162461bcd60e51b81526020600482015260146024820152732330b4b632b2103a379039b2b7321022ba3432b960611b60448201526064016105e9565b50505b60006005600060038481548110610d5257610d526111b6565b60009182526020808320600392909202909101546001600160a01b031683528201929092526040019020805460ff191691151591909117905580610d95816113b9565b915050610b44565b505b60006001819055600480548290610db857610db86111b6565b90600052602060002090600202016001018190555060006004600181548110610de357610de36111b6565b9060005260206000209060020201600101819055505050565b610e04610f2a565b60025460ff161515600114610e495760405162461bcd60e51b815260206004820152600b60248201526a105b1c9958591e48195b9960aa1b60448201526064016105e9565b6002805460ff19169055565b610e5d610f2a565b60025460ff1615610ea25760405162461bcd60e51b815260206004820152600f60248201526e105b1c9958591e481cdd185c9d1959608a1b60448201526064016105e9565b6002805460ff19166001179055565b610eb9610f2a565b6001600160a01b038116610f1e5760405162461bcd60e51b815260206004820152602660248201527f4f776e61626c653a206e6577206f776e657220697320746865207a65726f206160448201526564647265737360d01b60648201526084016105e9565b610f2781610f84565b50565b6000546001600160a01b031633146105965760405162461bcd60e51b815260206004820181905260248201527f4f776e61626c653a2063616c6c6572206973206e6f7420746865206f776e657260448201526064016105e9565b600080546001600160a01b038381166001600160a01b0319831681178455604051919092169283917f8be0079c531659141344cd1fd0a4f28419497f9722a3daafe3b4186f6b6457e09190a35050565b600060208284031215610fe657600080fd5b5035919050565b6000815180845260005b8181101561101357602081850181015186830182015201610ff7565b506000602082860101526020601f19601f83011685010191505092915050565b60018060a01b038416815282602082015260606040820152600061105a6060830184610fed565b95945050505050565b6040815260006110766040830185610fed565b90508260208301529392505050565b634e487b7160e01b600052604160045260246000fd5b6000602082840312156110ad57600080fd5b813567ffffffffffffffff808211156110c557600080fd5b818401915084601f8301126110d957600080fd5b8135818111156110eb576110eb611085565b604051601f8201601f19908116603f0116810190838211818310171561111357611113611085565b8160405282815287602084870101111561112c57600080fd5b826020860160208301376000928101602001929092525095945050505050565b60006020828403121561115e57600080fd5b81356001600160a01b038116811461117557600080fd5b9392505050565b600181811c9082168061119057607f821691505b6020821081036111b057634e487b7160e01b600052602260045260246000fd5b50919050565b634e487b7160e01b600052603260045260246000fd5b634e487b7160e01b600052601160045260246000fd5b80820281158282048414176111f9576111f96111cc565b92915050565b60008261121c57634e487b7160e01b600052601260045260246000fd5b500490565b808201808211156111f9576111f96111cc565b601f82111561127e57600081815260208120601f850160051c8101602086101561125b5750805b601f850160051c820191505b8181101561127a57828155600101611267565b5050505b505050565b815167ffffffffffffffff81111561129d5761129d611085565b6112b1816112ab845461117c565b84611234565b602080601f8311600181146112e657600084156112ce5750858301515b600019600386901b1c1916600185901b17855561127a565b600085815260208120601f198616915b82811015611315578886015182559484019460019091019084016112f6565b50858210156113335787850151600019600388901b60f8161c191681555b5050505050600190811b01905550565b60008083546113518161117c565b60018281168015611369576001811461137e576113ad565b60ff19841687528215158302870194506113ad565b8760005260208060002060005b858110156113a45781548a82015290840190820161138b565b50505082870194505b50929695505050505050565b6000600182016113cb576113cb6111cc565b506001019056fea2646970667358221220bc0f62df5176e5e4bf2d5eacb32d6593a6be9739ac6d95f63b32a34d48538a3464736f6c63430008110033",
    "sourcePath": "/Users/donggichae/Documents/side_project/bettingcontrats/contracts/Betting.sol",
    "compiler": {
        "name": "solc",
        "version": "0.8.17+commit.8df45f5f"
    },
    "functionHashes": {
        "bet(string)": "74030531",
        "bets(uint256)": "22af00fa",
        "endBetting()": "826f57a1",
        "getAwards()": "449209df",
        "getBalance()": "12065fe0",
        "getEachBet()": "2af02df0",
        "getTotalbet(uint256)": "5b4fed94",
        "limitBetting()": "78adf8ba",
        "owner()": "8da5cb5b",
        "renounceOwnership()": "715018a6",
        "setResult(uint256)": "812448a5",
        "startBetting()": "d187162f",
        "totalMoney()": "87da21e3",
        "transferOwnership(address)": "f2fde38b",
        "upOrDowns(uint256)": "38593646"
    },
    "gasEstimates": {
        "creation": {
            "codeDepositCost": "1025600",
            "executionCost": "infinite",
            "totalCost": "infinite"
        },
        "external": {
            "bet(string)": "infinite",
            "bets(uint256)": "infinite",
            "endBetting()": "28750",
            "getAwards()": "infinite",
            "getBalance()": "196",
            "getEachBet()": "8915",
            "getTotalbet(uint256)": "4650",
            "limitBetting()": "2355",
            "owner()": "2345",
            "renounceOwnership()": "infinite",
            "setResult(uint256)": "infinite",
            "startBetting()": "28724",
            "totalMoney()": "2306",
            "transferOwnership(address)": "28386",
            "upOrDowns(uint256)": "infinite"
        }
    }
}